:080000006F50402000000000D9
:10000800B71402409305E0408CC483A20400370370
:100018000001B3E2620023A0540083A30400370E5A
:100028000002B3F3C301E38A03FE83AE8400370FF3
:100038000080B3EEEE0123A4D401894F23A2F4017A
:1000480003A94400A14933793901E30B09FE1305DB
:10005800400F9705FFFF9385E5FA1756FFFF130634
:10006800660B63FAC5008322050023A0550011051D
:100078009105E3EAC5FE1755EFDF130525219755CE
:10008800FFFF938525091756FFFF1306A60863FA95
:10009800C5008322050023A0550011059105E3EA58
:1000A800C5FE1755EFDF1305651E970500009385FC
:1000B80065051386018163FAC5008322050023A024
:1000C800550011059105E3EAC5FE17050000130563
:1000D800650D974500009385E5FC6377B5002320FF
:0C00E80005001105E36DB5FE82800000EC
:1000F40000000000000000007A021020820210209C
:1001040000000000D80910200000000000000000DA
:10011400D8091020D80910200000000000000000B9
:100124003A1C1020D8091020D80910200000000023
:10013400D8091020D8091020D8091020D809102077
:1001440000000000000000000000000000000000AB
:10015400000000000000000000000000000000009B
:10016400D80910200000000000000000000000007A
:10017400D8091020D8091020D8091020D809102037
:10018400D8091020D80910201E161020221A102079
:10019400D8091020D8091020D8091020D809102017
:1001A400D8091020D8091020D8091020D809102007
:1001B400D8091020D8091020D8091020D8091020F7
:1001C400D8091020D8091020D8091020D8091020E7
:1001D400D80910202E181020D8091020D809102072
:1001E400D8091020D8091020D8091020D8091020C7
:1001F400D8091020D8091020D8091020D8091020B7
:10020400D8091020D8091020D8091020D8091020A6
:10021400D8091020D8091020D8091020D809102096
:10022400D8091020D8091020D8091020D809102086
:10023400D8091020D8091020D8091020D809102076
:10024400D8091020D8091020D8091020D809102066
:10025400D8091020D8091020D8091020D809102056
:10026400D8091020D8091020D8091020D809102046
:10027400D8091020D8091020D8091020B41C102047
:10028400D8091020D8091020D8091020D809102026
:10029400D8091020D8091020D8091020D809102016
:1002A400D8091020D8091020D8091020D809102006
:1002B400D8091020D8091020D8091020D8091020F6
:1002C400D8091020D8091020D8091020D8091020E6
:1002D400D8091020D8091020D8091020D8091020D6
:1002E400D8091020D809102000000000D8091020D7
:1002F400D80910200000000000000000D8091020D8
:100304000000000000000000D8091020D8091020C7
:10031400D8091020D8091020D8091020D809102095
:10032400D8091020D8091020D8091020D809102085
:10033400D8091020D8091020D8091020D809102075
:10034400D80910202A8309CA838305002300730077
:100354007D16050385056DFA82802A8311C6230064
:10036400B3007D16050365FE8280411122C6000894
:1003740001A0411122C60008B7E700E03707EFBE2D
:1003840013070708B8C7010001A0011106CE22CC4B
:100394004ACA4EC80010A520AD2AB707112003A7EA
:1003A400071A9307803EB357F7023E8981494A856D
:1003B400CE85EF10500F856713858738EF10701BBB
:1003C400C1672326F4FE8327C4FE93F707C02326C0
:1003D400F4FEB7E700E00327C4FE23A2E77237E781
:1003E40000E08567BA9783A707D1B7E600E013E773
:1003F40007028567B69723A8E7D0010001A0411141
:1004040006C622C40008B71702409843B717024033
:100414001367170098C3B7170240D443B7170240B5
:1004240037075C30758FD8C30100B7170240DC432F
:10043400B18BE5FFB7170240D443B7170240370723
:10044400C0FF7D17758FD8C3B71702409447B717FD
:100454000240370700807D17758F98C7B717024091
:100464009443B71702403707A76A7D17758F98C35F
:10047400B71702409443B71702403707FCFF7D17B4
:10048400758F98C3B71702409447B717024037C710
:10049400FF0F758F98C7B71702409847B7170240E8
:1004A4001367470098C7B71702403707FF00D8C73C
:1004B400B7170240945BB71702403707600C758F7B
:1004C40098DBB7170240D45BB717024037E7F0FF59
:1004D40013070708758FD8DBB7170240D45BB7172B
:1004E40002403707080013070702558FD8DB312075
:1004F4000100B240224441018280411106C622C457
:100504000008EF009013D9260100B24022444101B3
:100514008280797122D60018232404FE232604FE47
:10052400232204FE232004FE232E04FC232C04FC9B
:10053400232A04FC232804FCB7170240DC43B18BB4
:100544002324F4FEB71702409847B7070070F98FC9
:100554002322F4FE032784FEA1476302F704032742
:1005640084FEA14763E3E72A832784FE99C7032710
:1005740084FE9147630CF70049ACB7071120378715
:100584007D011307078423A8E71849ACB707112096
:1005940037877D011307078423A8E71841A403279D
:1005A40044FEB7070070630FF722032744FEB70722
:1005B400007063E2E724032744FEB7070060630981
:1005C400F71E032744FEB707006063E6E72203270C
:1005D40044FEB70700506304F71C032744FEB70723
:1005E400005063EAE720832744FE81CB032744FEBF
:1005F400B7070040630CF718FDAAB71702409C47E1
:10060400FD8B232EF4FCB71702409C4793F7070E8B
:10061400232CF4FCB71702409C47A18393F7F703FC
:100624008507232AF4FC032784FD9307000A631D2E
:10063400F700B767CD1D13870750832744FDB357D1
:10064400F7022326F4FEC1A0032784FD9307000EBE
:10065400631EF702B7170240DC5BC1833707112022
:1006640013070713BA979C2393F7F70F3E87B787AF
:100674007D0193870784B307F70213D717008327F5
:1006840044FDB357F7022326F4FEB5A8032784FDDF
:1006940093070008631DF700B7479C1C1387078066
:1006A400832744FDB357F7022326F4FEA9A80327A2
:1006B40084FD9307000C631DF700B7677307138766
:1006C4000794832744FDB357F7022326F4FE25A895
:1006D400032784FD93070002631DF700B7877D019C
:1006E40013870784832744FDB357F7022326F4FEB8
:1006F40019A8B7877D0113870784832744FDB3575F
:10070400F7022326F4FE0327C4FD91476306F7028C
:100714000327C4FD99476301F7020327C4FDA147DA
:10072400630CF7000327C4FDA9476307F7000327F9
:10073400C4FDB1476318F702B707112013870710E8
:100744008327C4FDBA979C2393F7F70F3E8783272B
:10075400C4FEB307F70213D71700B707112023A865
:10076400E7185DA0B7071120138707108327C4FD7E
:10077400BA979C2393F7F70F3E878327C4FE33076A
:10078400F702B707112023A8E718BDA8B70711205F
:1007940037479C1C1307078023A8E718B5A0B707A1
:1007A40011203767CD1D1307075023A8E718A9A800
:1007B400B7170240DC5BC183370711201307071307
:1007C400BA979C2393F7F70F3E87B7877D019387EA
:1007D4000784B307F70213D71700B707112023A81C
:1007E400E7181DA0B707112037677307130707948D
:1007F40023A8E71811A8B707112037877D0113072D
:10080400078423A8E718010011A8B7071120378728
:100814007D011307078423A8E7180100B7170240D6
:10082400DC439183BD8B2324F4FEB7071120138787
:100834000712832784FEBA979C2393F7F70F232884
:10084400F4FCB707112003A70719832704FDB35746
:10085400F7002320F4FEB7170240DC43C1838D8BDD
:100864002324F4FE13878180832784FEBA979C2374
:1008740093F7F70F2328F4FC832704FD032704FED2
:100884003357F700B707112023A0E71A37E700E032
:100894008567BA9703A707D1C167F98FB337F0000B
:1008A40093F7F70F91EBB707112003A7071AB707C0
:1008B400112023AAE71839A0B7071120032704FE43
:1008C40023AAE7180100325445618280011122CE27
:1008D4000010232604FE232404FE232204FEB7175B
:1008E40002409443B71702404167558F98C3B71726
:1008F40002409843B7070200F98F2324F4FE8327AC
:10090400C4FE85072326F4FE832784FE99E7032784
:10091400C4FEB7070001E31CF7FCB7170240984375
:10092400B7070200F98F89C785472324F4FE19A06D
:10093400232404FE032784FE85476313F718B7179F
:1009440002409847B7170240019B98C7B717024067
:100954009847B71702401367F70198C7B7170240C3
:100964009447B717024071771307F70F758F98C72D
:10097400B71702409847B71702401367074098C754
:10098400B71702409847B71702401377F7F198C793
:10099400B71702409847B71702401367070298C772
:1009A4000100B71702409C4713F7070E9307000294
:1009B400E319F7FEB71702409443B717024037070D
:1009C4000001558F98C30100B71702409843B70739
:1009D40000027D8FB7070002E318F7FEB717024045
:1009E4009447B7170240370700807D17758F98C763
:1009F400B71702409447B7170240370700907D1796
:100A0400758F98C70100B71702409847B707007061
:100A1400F98FF5FBB7170240D843B7170240137795
:100A2400F7F0D8C337170240B71702405843D8C36A
:100A3400B7170240D443B71702403707FDFF7D17AD
:100A4400758FD8C3B7170240D443B7170240416724
:100A5400558FD8C3B72702409C432322F4FE832733
:100A640044FEF19B2322F4FE832744FE93E7170000
:100A74002322F4FEB7270240032744FE98C3B71786
:100A840002409447B717024037070080558F98C734
:100A9400B7170240D843B7170240719BD8C3B717A2
:100AA4000240D843B717024013672700D8C3010098
:100AB400B7170240DC4313F7C700A147E31AF7FE58
:100AC400010072440561828001A0797122D6001868
:100AD400232EA4FC232CB4FC232604FE232404FE8E
:100AE4008327C4FD9C432324F4FE032784FE832729
:100AF40084FDF98F032784FD6316F70085472326B9
:100B0400F4FE19A0232604FE8327C4FE3E85325436
:100B140045618280011122CE00102326A4FE2324E5
:100B2400B4FE8327C4FE032784FED8C301007244A5
:100B340005618280411122C60008B7270240DC4FBC
:100B440089833E85324441018280011106CE22CC44
:100B54000010B70700089C432326F4FEE13FAA8750
:100B64002326F4FE8327C4FE93F707F02326F4FE1E
:100B74008327C4FE99833E85F240624405618280E6
:100B8400397122DE80002326A4FC2324B4FC23260E
:100B940004FE232004FE232404FE232E04FC23222B
:100BA40004FE232C04FC832784FC9C47BD8B232652
:100BB400F4FE832784FC9C47C18BCDC78327C4FEE6
:100BC40093E717002326F4FE8327C4FCDC4F23227B
:100BD400F4FE232404FEADA8832784FE0547B3173F
:100BE400F700232EF4FC832784FC9E233E8783276F
:100BF400C4FDF98F2320F4FE032704FE8327C4FDDC
:100C04006313F704832784FE8607232EF4FC8327CB
:100C1400C4FD0D47B317F700232CF4FC832784FD90
:100C240093C7F7FF032744FEF98F2322F4FE83279B
:100C340084FCD8438327C4FDB317F700032744FE7D
:100C4400D98F2322F4FE832784FE85072324F4FE10
:100C5400032784FEBD47E3F1E7F88327C4FC032799
:100C640044FED8CF832784FC9E2393F7F70FE9CF64
:100C74008327C4FC9C432322F4FE232404FE5DA8A2
:100C8400832784FE0547B317F700232EF4FC83273C
:100C940084FC9E233E878327C4FDF98F2320F4FE22
:100CA400032704FE8327C4FD6311F708832784FE0A
:100CB4008A07232EF4FC8327C4FD3D47B317F700AE
:100CC400232CF4FC832784FD93C7F7FF032744FEFA
:100CD400F98F2322F4FE8327C4FD0327C4FEB31730
:100CE400F700032744FED98F2322F4FE832784FCD4
:100CF400984793078002631BF700832784FE054708
:100D04003317F7008327C4FCD8CB05A0832784FCC2
:100D1400984793078004631AF700832784FE0547E6
:100D24003317F7008327C4FC98CB832784FE8507F9
:100D34002324F4FE032784FE9D47E3F3E7F483278B
:100D4400C4FC032744FE98C3832784FC9A23930797
:100D5400F00F63F0E70E8327C4FCDC432322F4FE88
:100D6400232404FE6DA8832784FEA1070547B31737
:100D7400F700232EF4FC832784FC9E233E878327DD
:100D8400C4FDF98F2320F4FE032704FE8327C4FD4A
:100D94006312F708832784FE8A07232EF4FC832733
:100DA400C4FD3D47B317F700232CF4FC832784FDCF
:100DB40093C7F7FF032744FEF98F2322F4FE83270A
:100DC400C4FD0327C4FEB317F700032744FED98FDD
:100DD4002322F4FE832784FC984793078002631B35
:100DE400F700832784FEA10705473317F7008327FD
:100DF400C4FCD8CB832784FC984793078004631BE7
:100E0400F700832784FEA10705473317F7008327DC
:100E1400C4FC98CB832784FE85072324F4FE032790
:100E240084FE9D47E3F1E7F48327C4FC032744FED3
:100E3400D8C30100725421618280797106D622D40C
:100E44000018232004FE232204FE232404FE232668
:100E540004FE85451305C00F1929B7A70240C10731
:100E64009C4393F707F0232EF4FC8327C4FD93E7F8
:100E7400B701232EF4FCB7A70240C1070327C4FD22
:100E840098C3B7A70240D1079C4393F707FC232ECE
:100E9400F4FC8327C4FD93E7E700232EF4FCB7A7F3
:100EA4000240D1070327C4FD98C34531B7F7FF1F9C
:100EB400938747709C4393F7070F8DE78545370564
:100EC4000080CD2EB787004093870740D853B7875B
:100ED40000409387074013671700D8D3814537052F
:100EE4000080C92EB7F7FF1F938747709C4393F781
:100EF400F7F02326F4FE0327C4FEB7077241938755
:100F0400D750630DF7100327C4FEB70772419387C8
:100F1400D75063E8E7340327C4FEB70771419387CA
:100F2400D750630BF7020327C4FEB70771419387B9
:100F3400D75063E8E7320327C4FEB70750419387CD
:100F4400D7506300F71A0327C4FEB707604193879D
:100F5400D7506308F72431A69307E01C2310F4FE4E
:100F6400930780022324F4FE930704FEBE85B7177B
:100F74000140138507802931E1779387470E2310B9
:100F8400F4FE930780022324F4FE930704FEBE8537
:100F9400B7170140138507C0E536F9779387070330
:100FA4002310F4FE930780022324F4FE930704FE27
:100FB400BE8537150140E936930700302310F4FE4F
:100FC400930780022324F4FE930704FEBE85B7171B
:100FD4000140138507406D36930740382310F4FE13
:100FE400930780022324F4FE930704FEBE85B727EB
:100FF40001401385078069369167938707FC2310A6
:10100400F4FE930780022324F4FE930704FEBE85B6
:10101400B7270140138507C0A536A9A4896793871C
:10102400F7FD2310F4FE930780022324F4FE9307B4
:1010340004FEBE85B7170140138507809136E1771A
:101044009387C70F2310F4FE930780022324F4FE32
:10105400930704FEBE85B7170140138507C00D36FC
:10106400F977938707032310F4FE93078002232460
:10107400F4FE930704FEBE8537150140113693072D
:1010840000302310F4FE930780022324F4FE930718
:1010940004FEBE85B717014013850740D534896720
:1010A400F1172310F4FE930780022324F4FE930720
:1010B40004FEBE85B727014013850780D1349167AC
:1010C400938707FC2310F4FE930780022324F4FE85
:1010D400930704FEBE85B7270140138507C04D342E
:1010E40051A2930700102310F4FE930780022324D7
:1010F400F4FE930704FEBE85B717014013850780ED
:101104004134930740022310F4FE93078002232402
:10111400F4FE930704FEBE85B7170140138507C08C
:101124008534F977938707022310F4FE930780022E
:101134002324F4FE930704FEBE8537150140893449
:10114400DD572310F4FE930780022324F4FE930753
:1011540004FEBE85B7170140138507401534930775
:1011640070782310F4FE930780022324F4FE93077F
:1011740004FEBE85B7270140138507801134E1774B
:1011840093C777FC2310F4FE930780022324F4FE14
:10119400930704FEBE85B7270140138507C0CD32EF
:1011A400D1A0930700702310F4FE93078002232438
:1011B400F4FE930704FEBE85B7170140138507802C
:1011C400C132930740C02310F4FE93078002232406
:1011D400F4FE930704FEBE85B7170140138507C0CC
:1011E4004532F9772310F4FE930780022324F4FE9A
:1011F400930704FEBE853715014059329307309F8B
:101204002310F4FE930780022324F4FE930704FEC4
:10121400BE85B7170140138507409D32E17793C718
:10122400F7DF2310F4FE930780022324F4FE9307D0
:1012340004FEBE85B7270140138507809132956768
:101244009387F7832310F4FE930780022324F4FE8C
:10125400930704FEBE85B7270140138507C00D32EE
:1012640011A001000100B250225445618280011195
:1012740022CE00102326A4FE2324B4FE832784FE5A
:1012840099CBB7170240D44FB71702400327C4FEC7
:10129400558FD8CF21A8B7170240D44F8327C4FE57
:1012A40013C7F7FFB7170240758FD8CF01007244F8
:1012B40005618280011122CE00102326A4FE23247E
:1012C400B4FE832784FE99CBB71702409453B71713
:1012D40002400327C4FE558F98D321A8B7170240B4
:1012E40094538327C4FE13C7F7FFB7170240758FC3
:1012F40098D30100724405618280011122CE00104E
:101304002326A4FE8327C4FEDE23B3C7070893F76E
:10131400F71FB3C707083E8572440561828079715F
:1013240022D60018232EA4FCAE87231DF4FC23220E
:1013340004FE232604FE232004FE232404FE8357F4
:10134400A4FD93F7F70F958393F7F70F2320F4FE8B
:101354008357A4FDFD8B2326F4FE8327C4FE054793
:10136400B317F7002326F4FE032704FE8547631E04
:10137400F7008327C4FDDE27B3C707083E8783270A
:10138400C4FEF98F2326F4FE9DA0032704FE89479B
:10139400631EF7008327C4FD9E2BB3C707083E874F
:1013A4008327C4FEF98F2326F4FE91A0032704FEAD
:1013B4008D47631EF7008327C4FDDE2BB3C70708E0
:1013C4003E878327C4FEF98F2326F4FE0DA003274E
:1013D40004FE9147631DF7008327C4FDDE2FB3C7C6
:1013E40007083E878327C4FEF98F2326F4FE83571C
:1013F400A4FDA183B3C707082322F4FE832744FE78
:101404000547B317F7002322F4FE8327C4FD9E2368
:10141400B3C707083E87832744FEF98F2322F4FECF
:101424008327C4FE81CB832744FE89C785472324B1
:10143400F4FE19A0232404FE832784FE3E8532543F
:1014440045618280797106D622D40018232EA4FC2B
:10145400232CB4FC232AC4FC232604FE8327C4FDC6
:1014640099C7832784FD81C7832744FD99E3814776
:1014740091A28327C4FD9C4B99E3814725AA832726
:10148400C4FDDC47032744FD63F7E7008327C4FD5D
:10149400DC47232AF4FC8327C4FDD8478327C4FDF3
:1014A4009C47636DF7008327C4FDD8478327C4FD99
:1014B4009C47B307F7402326F4FE11A88327C4FDF5
:1014C40023A407008327C4FDDC472326F4FE032757
:1014D40044FD8327C4FEB357F70A232AF4FC832769
:1014E40044FD99E38147F9A08327C4FDD8478327A6
:1014F400C4FD9C43B307F7402326F4FE0327C4FE30
:10150400832744FD6361F7028327C4FD984B832737
:10151400C4FD9C43BA97032644FD832584FD3E8580
:10152400EFE05FE291A08327C4FD984B8327C4FDBD
:101534009C43BA970326C4FE832584FD3E85EFE0D1
:101544007FE08327C4FD944B032784FD8327C4FED7
:10155400B305F700032744FD8327C4FEB307F74010
:101564003E863685EFE01FDE8327C4FD984383273C
:1015740044FD3E978327C4FD98C38327C4FD984345
:101584008327C4FDDC47636CF7008327C4FD9843BD
:101594008327C4FDDC471D8F8327C4FD98C383279D
:1015A400C4FD9847832744FD3E978327C4FD98C70D
:1015B400832744FD3E85B25022544561828079716F
:1015C40006D622D40018232EA4FC232CB4FC232AF0
:1015D400C4FC232604FE8327C4FD99C7832784FD06
:1015E40081C7832744FD99E38147E5A88327C4FD88
:1015F4009C4B99E38147F5A08327C4FD9C4799E35D
:101604008147C5A08327C4FD9C47032744FDB357E6
:10161400F70A232AF4FC8327C4FDD8478327C4FD93
:10162400DC43B307F7402326F4FE0327C4FE8327D5
:1016340044FD6361F7028327C4FD984B8327C4FDEF
:10164400DC43BA97032644FDBE85032584FDEFE001
:101654007FCF91A08327C4FD984B8327C4FDDC432F
:10166400BA970326C4FEBE85032584FDEFE09FCD13
:10167400032784FD8327C4FEB306F7008327C4FD34
:101684008C4B032744FD8327C4FEB307F7403E86F3
:101694003685EFE03FCB8327C4FDD843832744FD41
:1016A4003E978327C4FDD8C38327C4FDD84383272B
:1016B400C4FDDC47636CF7008327C4FDD84383274C
:1016C400C4FDDC471D8F8327C4FDD8C38327C4FD15
:1016D4009847832744FD1D8F8327C4FD98C783271C
:1016E40044FD3E85B250225445618280011122CED0
:1016F40000102326A4FE8327C4FE99E3814721A07A
:101704008327C4FE9C473E85724405618280011193
:1017140022CE00109305000437050240EFF0EFBA23
:101724002A878547631EF70C232604FEB1A8B70752
:1017340011201387071E8327C4FE8A07BA979C4388
:1017440013D78740E1776344F702B7071120138763
:10175400071E8327C4FE8A07BA979C4313D7874082
:10176400A167FD17B347F70A9397576011A0E17774
:10177400938601D50327C4FE060736971EA3832745
:10178400C4FE85072326F4FE0327C4FE9307F00452
:10179400E3FFE7F81306000A938501D5B707112084
:1017A4001385071445312324A4FE032784FE9307DD
:1017B400F00963EDE702B707112083A7871A9DEBB1
:1017C400B7571020138587DFEF104041B70711206A
:1017D400054723A4E71AB707112083A7471A1387DD
:1017E4001700B707112023A2E71A29A0B707112071
:1017F40023A4071A9305000437050240EFF08FB1C4
:101804009305000237050240EFF02FAC2A87854785
:101814006312F70E930700052326F4FE85A0B7078D
:1018240011201387071E8327C4FE8A07BA979C4397
:1018340013D78740E1776344F702B7071120138772
:10184400071E8327C4FE8A07BA979C4313D7874091
:10185400A167FD17B347F70A9397576011A0E17783
:101864000327C4FE130707FB938601D506073697A3
:101874001EA38327C4FE85072326F4FE0327C4FE84
:101884009307F009E3FDE7F81306000A938501D5F1
:10189400B70711201385071475362324A4FE0327E4
:1018A40084FE9307F00963EDE702B707112083A7CD
:1018B400871A9DEBB7571020138587DFEF1000328E
:1018C400B7071120054723A4E71AB707112083A7F8
:1018D400471A13871700B707112023A2E71A29A074
:1018E400B707112023A4071A930500023705024005
:1018F400EFF04FA29305000837050240EFF0EF9C8C
:101904002A8785476318F7009305000837050240C6
:10191400EFF04FA001007244056173002030011103
:1019240022CE0010914537050240EFF00F9A2A8726
:1019340085476319F70C232604FE91A8138701AD8C
:101944008327C4FE8A07BA979C4313D78740E1775D
:101954006342F702138701AD8327C4FE8A07BA974F
:101964009C4313D78740A167FD17B347F70A9397A2
:10197400576011A0E177938601DF0327C4FE0607B1
:1019840036971EA38327C4FE85072326F4FE032768
:10199400C4FE9307F004E3F3E7FA1306000A938501
:1019A40001DFB707112013854715693C2324A4FEE2
:1019B400032784FE9307F00963EDE702B7071120BC
:1019C40083A7071B9DEBB75710201385C7E0EF10C3
:1019D400E020B7071120054723A8E71AB70711200D
:1019E40083A7C71A13871700B707112023A6E71A7E
:1019F40029A0B707112023A8071A914537050240EB
:101A0400EFF04F91894537050240EFF00F8C2A879C
:101A14008547631DF70C930700052326F4FEA1A850
:101A2400138701AD8327C4FE8A07BA979C4313D753
:101A34008740E1776342F702138701AD8327C4FE31
:101A44008A07BA979C4313D78740A167FD17B3470A
:101A5400F70A9397576011A0E1770327C4FE130791
:101A640007FB938601DF060736971EA38327C4FE70
:101A740085072326F4FE0327C4FE9307F009E3F148
:101A8400E7FA1306000A938501DFB70711201385CF
:101A940047154D3A2324A4FE032784FE9307F00937
:101AA40063EDE702B707112083A7071B9DEBB75728
:101AB4001020138507E2EF106012B70711200547C5
:101AC40023A8E71AB707112083A7C71A138717009B
:101AD400B707112023A6E71A29A0B707112023A8C6
:101AE400071A894537050240EFF0CF82A145370533
:101AF4000240EFE09FFD2A8785476317F700A14561
:101B040037050240EFF00F81010072440561730054
:101B14002030011122CE0010930500403705024009
:101B2400EFE0BFFA2A878547631CF70883A7C180C3
:101B340091C7930700142326F4FE29A093070028D5
:101B44002326F4FEB7071120138587164536232272
:101B5400A4FE8327C4FE032744FE637EF7020547E1
:101B640023A6E180130600148145B72711201385AD
:101B74000726EFE08FFE83A741828DEF054723A25E
:101B8400E182F92AAA87BE85B75710201385C7E5D5
:101B9400EF10C00405A023A6018023A2018213062E
:101BA4000014B727112093850726B7071120138542
:101BB400871631349305004037050240EFE09FF566
:101BC4009305002037050240EFE03FF02A87854760
:101BD400631DF70883A7C18091C7930700142324CA
:101BE400F4FE29A0930700282324F4FEB70711204C
:101BF40013858716E53C2320A4FE832784FE032750
:101C040004FE637EF702054723A6E1801306001451
:101C14008145B727112013850712EFE00FF483A73E
:101C2400418295EF054723A2E1821D2AAA87BE853A
:101C3400B75710201385C7E5EF00507A0DA023A6EF
:101C4400018023A2018213060014B7271120938573
:101C54000712B707112013858716EFF05F969305D7
:101C6400002037050240EFE0FFEA9315B02837055E
:101C74000240EFE09FE52A8785476311F702CD20F4
:101C8400AA87BE85B75710201385C7E7EF001075E4
:101C94009315B02837050240EFE0DFE701007244F6
:101CA400056173002030797122D60018232CA4FC1E
:101CB400232EB4FCB7F700E0D843B7F700E0799BD4
:101CC400D8C3B7F700E0032784FD98CBB7F700E04B
:101CD40023A40700B7F700E03D4798C3B147232486
:101CE400F4FEA30304FE37E700E0832784FEBA97DB
:101CF400034774FE2380E7400100B1472326F4FE26
:101D04008327C4FEFD8B0547B316F70037E700E0D1
:101D14008327C4FE9583938707048A07BA9794C3DD
:101D240001000100325445618280411122C600083D
:101D3400B7F700E0D8438547631FF700B7F700E023
:101D4400D843B7F700E0799BD8C383A78182138770
:101D5400170023A4E18201003244410173002030C2
:101D6400411122C6000883A781823E853244410185
:101D74008280797122D60018232EA4FC83A7818245
:101D84002326F4FE03A781828327C4FEB307F7400A
:101D94000327C4FD63F3E700F5B7010001003254E3
:101DA40045618280011122CE001093055052B7275D
:101DB400004013850780EFF08FD6AA8795C7B72711
:101DC400004013850780EFF04FD3AA8793F7F70FEE
:101DD400A307F4FE9307F4FE0546BE85B70711205A
:101DE4001385C717EFF00FE6010072440561730015
:101DF4002030797106D622D40018232CA4FC232E7B
:101E0400B4FC232604FEBDA8B757102003A607ED93
:101E140083A647ED032584FD8325C4FDEF20A02080
:101E2400AA8763CA0702B757102003A607ED83A643
:101E340047ED032584FD8325C4FDEF1030412A8737
:101E4400AE87232CE4FC232EF4FC8327C4FE9507E1
:101E54002326F4FE05A8B757102003A687ED83A612
:101E6400C7ED032584FD8325C4FDEF10303E2A878A
:101E7400AE87232CE4FC232EF4FC8327C4FE8507C1
:101E84002326F4FEB757102003A687ED83A6C7EDDB
:101E9400032584FD8325C4FDEF20E018AA87E3D53C
:101EA40007F6BDA8B757102003A607EE83A647EE92
:101EB400032584FD8325C4FDEF20C022AA8763DAAD
:101EC4000702B757102003A607ED83A647ED0325A5
:101ED40084FD8325C4FDEF20A02C2A87AE87232C04
:101EE400E4FC232EF4FC8327C4FEED172326F4FE22
:101EF40005A8B757102003A687ED83A6C7ED0325D1
:101F040084FD8325C4FDEF20A0292A87AE87232CD6
:101F1400E4FC232EF4FC8327C4FEFD172326F4FEE1
:101F2400B757102003A687EE83A6C7EE032584FDCA
:101F34008325C4FDEF20001BAA87E3C507F683278A
:101F4400C4FE3E85B250225445618280797106D622
:101F540022D40018232EA4FCB757102003A787EE21
:101F640083A7C7EE2324E4FE2326F4FEADA00327B3
:101F7400C4FD914763DAE702B757102003A607EDC3
:101F840083A647ED032584FE8325C4FEEF2040216C
:101F94002A87AE872324E4FE2326F4FE8327C4FD88
:101FA400ED17232EF4FC05A8B757102003A687EDE0
:101FB40083A6C7ED032584FE8325C4FEEF20401EBF
:101FC4002A87AE872324E4FE2326F4FE8327C4FD58
:101FD400FD17232EF4FC8327C4FDE34AF0F8ADA0DB
:101FE4000327C4FDF157635AF702B757102003A61D
:101FF40007ED83A647ED032584FE8325C4FEEF1079
:10200400F0242A87AE872324E4FE2326F4FE8327C4
:10201400C4FD9507232EF4FC05A8B757102003A68A
:1020240087ED83A6C7ED032584FE8325C4FEEF1048
:10203400F0212A87AE872324E4FE2326F4FE832797
:10204400C4FD8507232EF4FC8327C4FDE3CA07F8E7
:10205400032784FE8327C4FE3A85BE85B2502254EA
:10206400456182801D7186CEA2CCA6CACAC8CEC6DE
:10207400D2C4D6C28010232EA4FA2328B4FA232A69
:10208400C4FA232CD4FABA87A307F4FA232E04FC47
:10209400232C04FCA30B04FC232804FC032604FBCC
:1020A400832644FB032504FB832544FBEF20B05126
:1020B400AA8781CBB7571020938787E92328F4FC9C
:1020C4004DA6832784FB63D507009947232CF4FA94
:1020D40001468146032504FB832544FBEF20800051
:1020E400AA8763D30702032A04FB032744FBB70729
:1020F4000080B34AF700232844FB232A54FB9307A8
:10210400D002A30BF4FC29A09307B002A30BF4FCA8
:10211400032904FB032744FBB7070080FD17B379A9
:10212400F7008544B757102003A607EF83A647EFAF
:102134004A85CE85EF203049AA8799EFB7571020FA
:1021440003A607EF83A647EF4A85CE85EF10907963
:10215400AA876353F000814493F7F40F93C71700E1
:1021640093F7F70F81CBB75710209387C7E923283C
:10217400F4FCA9AA0307F4FA930760066310F708AE
:10218400832784FBB307F0403E85C9332A87AE8793
:10219400B756102003A686EF83A6C6EF3A85BE8500
:1021A400EF10D00A2A87AE873A86BE86032504FB41
:1021B400832544FBEF1020192A87AE872328E4FAED
:1021C400232AF4FA032504FB832544FB1D31232C25
:1021D400A4FC832784FD63D40700232C04FC032779
:1021E40084FD832784FB3E97F14763D1E70EB757FD
:1021F4001020938707EA2328F4FCC9A801468146E6
:10220400032504FB832544FBEF10305BAA87DDCF55
:10221400032504FB832544FBE93E2A87832784FBAB
:10222400B307F7403E851D332A87AE87B756102083
:1022340003A686EF83A6C6EF3A85BE85EF1010018C
:102244002A87AE873A86BE86032504FB832544FB92
:10225400EF10600F2A87AE872328E4FA232AF4FAC2
:10226400032504FB832544FB6936232EA4FC0327A2
:10227400C4FD9307300663C7E700032784FBE547E3
:1022840063D9E700B7571020938707EA2328F4FCA3
:1022940035A80327C4FD9307D0F96356F7009307C5
:1022A400D0F9232EF4FC0325C4FD4D312A87AE87D3
:1022B4003A86BE86032504FB832544FBEF10007990
:1022C4002A87AE872328E4FA232AF4FA832704FD15
:1022D40063990718030774FD9307D002631BF70083
:1022E4008327C4FB13871700232EE4FA034774FDE6
:1022F40098A3032584FD99392324A4FC2326B4FC44
:10230400032684FC8326C4FC032504FB832544FBA9
:10231400EF10C0732A87AE873A85BE85EF20902ED2
:10232400AA872322F4FC032544FCEF20F0332A87F8
:10233400AE87032684FC8326C4FC3A85BE85EF1051
:1023440030662A87AE873A86BE86032504FB83253A
:1023540044FBEF2060352A87AE872328E4FA232A3A
:10236400F4FA032784FDFD57631BF7008327C4FB9E
:1023740013871700232EE4FA1307E00298A3832798
:1023840044FC93F7F70F9387070393F6F70F83271C
:10239400C4FB13871700232EE4FA1397466098A30F
:1023A400832784FDFD17232CF4FC832784FBB307C8
:1023B400F040032784FDE35EF7F20307F4FA930782
:1023C40060066300F70A8327C4FB13871700232ED4
:1023D400E4FA0347F4FA98A38327C4FD63D20702FF
:1023E4008327C4FDB307F040232EF4FC8327C4FBEA
:1023F40013871700232EE4FA1307D00298A311A819
:102404008327C4FB13871700232EE4FA1307B002B3
:1024140098A30327C4FDA947B347F70293F7F70F1F
:102424009387070393F6F70F8327C4FB13871700DB
:10243400232EE4FA1397466098A30327C4FDA94703
:10244400B367F70293F7F70F9387070393F6F70F32
:102454008327C4FB13871700232EE4FA13974660DF
:1024640098A3832704FDA9C3830774FD91CB832715
:10247400C4FB13871700232EE4FA034774FD98A3C3
:10248400032704FD930717002328F4FC8327C4FBC8
:1024940093861700232ED4FA0307070098A38327F3
:1024A40004FD83870700E9FF8327C4FB238007001B
:1024B4000100F6406644D6444649B649264A964A3F
:1024C40025618280011106CE22CC00102326A4FEB1
:1024D4002324B4FE032784FEA9476316F700B545F9
:1024E4000325C4FEC5378327C4FE99C78327C4FECA
:1024F400032584FE829739A883A7018381CF83A70C
:1025040001839386170023A8D182032784FE13171F
:10251400476098A30100F2406244056182803571EE
:1025240006CF22CD4ACB4EC952C756C55AC35EC147
:10253400E2DEE6DC00112326A4F62324B4F62322EB
:10254400C4F6832784F6138717002324E4F69C2318
:10255400A309F4FA830734FB63820766030734FB99
:10256400930750026309F700830734FBBE850325F4
:10257400C4F6893F99A5232004FC832704FC232E59
:10258400F4FA93070002A305F4FAFD57232AF4FA98
:10259400832784F6138717002324E4F69C23A309D6
:1025A400F4FA030734FB930700036310F70293075D
:1025B4000003A305F4FA832784F613871700232462
:1025C400E4F69C23A309F4FA1DA0030734FB930744
:1025D400D002631EF7008947232EF4FA832784F67A
:1025E400138717002324E4F69C23A309F4FA0307B2
:1025F40034FB9307A002631DF706832744F6138771
:1026040047002322E4F69C43232CF4FA832784FB1B
:1026140063DB0700832784FBB307F040232CF4FA21
:102624008947232EF4FA832784FB2320F4FC832791
:1026340084F6138717002324E4F69C23A309F4FAF1
:10264400A1A0032704FCBA878A07BA9786073E87A6
:10265400830734FBBA97938707FD2320F4FC832771
:1026640084F6138717002324E4F69C23A309F4FAC1
:10267400030734FB9307F00263D8E700030734FB36
:1026840093079003E3DFE7FA030734FB9307E002C1
:10269400631AF708832784F6138717002324E4F6C4
:1026A4009C23A309F4FA030734FB9307A0026315E0
:1026B400F702832744F6138747002322E4F69C435A
:1026C400232AF4FA832784F6138717002324E4F6D5
:1026D4009C23A309F4FAB9A0232A04FA05A8032722
:1026E40044FBBA878A07BA9786073E87830734FB79
:1026F400BA97938707FD232AF4FA832784F613876E
:1027040017002324E4F69C23A309F4FA030734FBFB
:102714009307F00263D8E700030734FB93079003A1
:10272400E3DFE7FA030734FB9307C0066316F704F5
:102734008327C4FB93E74700232EF4FA832784F608
:10274400138717002324E4F69C23A309F4FA030750
:1027540034FB9307C0066311F7028327C4FB93E796
:102764008700232EF4FA832784F613871700232483
:10277400E4F69C23A309F4FA830734FB6382074439
:10278400830734FB9387B7FB130730036367F71C96
:1027940013972700B7571020938707F0BA979C43E5
:1027A400828789472326F4FCC1A2A1472326F4FC8F
:1027B40065AAA9472326F4FC45AAC1472326F4FCAD
:1027C40065A2832744F6138747002322E4F69C433B
:1027D40093974760BE850325C4F6ED31F9AE832790
:1027E40044F6138747002322E4F69C432326F4FA95
:1027F4008327C4FA99E7B7571020938747EA23261B
:10280400F4FA0325C4FAEF20206D2322A4FC8327C5
:1028140044FB63C80702832744FB032744FC63F299
:10282400E702832744FB2322F4FC21A88307B4FA9C
:10283400BE850325C4F67931832744FC850723220A
:10284400F4FC8327C4FB898B85E7032744FC832797
:1028540004FCE36DF7FC29A88327C4FA1387170047
:102864002326E4FA83870700BE850325C4F6993935
:102874008327C4FA8387070091CF832744FB1387F8
:10288400F7FF232AE4FAE9FB31A0930500020325AC
:10289400C4F60D39832744FC138717002322E4FC74
:1028A400032704FCE3E3E7FE09AE930784F723263A
:1028B400F4FA832744F69D07E19B138787002322BC
:1028C400E4F68843CC43830734FB3E87832644FBEA
:1028D4002E86AA850325C4FAEFF0CFF80325C4FA9F
:1028E400EF20805F2322A4FC21A88307B4FABE85CD
:1028F4000325C4F6C13E832744FC85072322F4FC48
:102904008327C4FB898B85E7032744FC832704FCC6
:10291400E36DF7FC29A88327C4FA1387170023263D
:10292400E4FA83870700BE850325C4F6613E832746
:10293400C4FA83870700E5F331A093050002032559
:10294400C4F64936832744FC138717002322E4FC8A
:10295400032704FCE3E3E7FE8DA4830734FBBE8571
:102964000325C4F6853691AC8327C4FBA18B85C3AC
:10297400832744F69D07E19B138787002322E4F60F
:102984009843DC432320E4FA2322F4FA51A083275A
:10299400C4FB918BA1C3030734FB93074006631D5B
:1029A400F700832744F6138747002322E4F69C4369
:1029B4003E89FD87BE8911A8832744F61387470003
:1029C4002322E4F69C433E898149232024FB2322CD
:1029D40034FB3DA8030734FB93074006631DF7004F
:1029E400832744F6138747002322E4F69C433E8A58
:1029F400FD87BE8A11A8832744F613874700232244
:102A0400E4F69C433E8A814A232044FB232254FB60
:102A1400030734FB930740066310F704832744FA43
:102A240063DC070201468146032504FA832544FA40
:102A34003307A6403A8833380601B387B640B386D5
:102A44000741B6872320E4FA2322F4FA8327C4FB40
:102A540093E71700232EF4FA232404FC032704FA33
:102A6400832744FA232CE4F8232EF4F88327C4FCA8
:102A74003E8B814B032784F98327C4F95A86DE866B
:102A84003A85BE8581232A87AE872309E4FA832702
:102A9400C4FC3E8C814C6286E686032584F983253A
:102AA400C4F961222A87AE87232CE4F8232EF4F894
:102AB400030724FBA54763D3E702030734FB93070B
:102AC40080076315F7009307700211A09D47034721
:102AD40024FBBA9793F7F70F2309F4FA834724FBEF
:102AE4009387070393F6F70F832784FC1387170054
:102AF4002324E4FC13974660938707FDA29723845D
:102B0400E7FA832784F90327C4F9D98F91C70327E8
:102B140084FCFD47E3FCE7F48327C4FB858B91CF5A
:102B2400832784FC138717002324E4FC938707FD81
:102B3400A2971307D0022384E7FA832784FC232275
:102B4400F4FC29A88307B4FABE850325C4F6EFF084
:102B54007F97832744FC85072322F4FC8327C4FB47
:102B6400898B99E7032744FC832704FCE36CF7FC77
:102B7400832784FCFD172324F4FC832784FC938798
:102B840007FDA297838787FABE850325C4F6EFF075
:102B94007F93832784FCE9FF39A093050002032572
:102BA400C4F6EFF03F92832744FC138717002322D7
:102BB400E4FC032704FCE3E2E7FE61B2010011A098
:102BC40001000100FA406A445A49CA493A4AAA4AE9
:102BD4001A4B8A4B765CE65C0D6182805D7106D689
:102BE40022D40018232EA4FC4CC010C454C418C80A
:102BF4005CC8232C0401232E140193070402232C04
:102C0400F4FC832784FD91172326F4FE83A7C18255
:102C14000327C4FE3A868325C4FD3E85EFF03F902A
:102C24000100B2502254616182803288AA882E87C2
:102C3400CDEA63FFC50EC167636AF618B7070001E2
:102C4400B337F600B307F040E19BE1073353F600D6
:102C5400972600009386064B9A969422130300024B
:102C6400B697B306F340630BF3003397D500B3571D
:102C7400F5003318D6005D8FB318D500135608013C
:102C84003355C702B346080893D708013377C70200
:102C9400B385A6024207D98F63FAB700C297130718
:102CA400F5FF63E4070163E8B7303A858D8F33D7C6
:102CB400C702B3C80808B3F7C702B386E602C2075F
:102CC400B3E8F80063FBD800C2989307F7FF63E505
:102CD4000801791763E3D8003E874205598D814581
:102CE400828063F5D500814501458280C16763E533
:102CF400F618B7070001B3B7F600B307F040E19B3D
:102D0400E10733D8F600172700001307A73F4297BF
:102D14001823930800023E973388E8406392E8182A
:102D240063EDB6263335C500134515008145828011
:102D340045C6C167637BF624133706101347170093
:102D44000E07B356E600972700009387A73BB69774
:102D54009C2393060002BA97B38EF640639DF6084F
:102D6400B387C5408545935606013346060833D5D7
:102D7400D70213D70801B3F7D7023303C502C2073A
:102D8400D98F63FA6700C2971307F5FF63E407015D
:102D940063E067223A85B387674033D7D702B3C865
:102DA4000808B3F7D7023306C702C207B3E8F8002E
:102DB40063FBC800C2989307F7FF63E5080179171E
:102DC40063E3C8003E874205598D8280933706101D
:102DD40093C717008E079DBD8146972700009387F0
:102DE4006732B6979C23014793060002BA97B38EC5
:102DF400F640E387F6F63318D60133D3F50093563D
:102E04000801335ED302B395D501B357F500CD8FD6
:102E14003346080813D70701B318D5013373D30217
:102E2400B305C603420333676700637BB700429769
:102E34001305FEFF636A07176378B716791E429776
:102E44000D8F3355D702B3C707083377D70233033F
:102E5400A6024207D98F63FB6700C2971307F5FFE9
:102E640063E0071563FE67127915C29793150E0187
:102E7400B3876740C98DE5BD93B7061093C71700A4
:102E84008E0733D8F600172700001307A7274297A9
:102E94001823930800023E973388E840E382E8E869
:102EA400335EE600B3960601336EDE00B3D8E50068
:102EB400935E0E01B3D7D803B39505013357E500EC
:102EC4004D8F33430E089356070133160601B3F8AA
:102ED400D803B305F302C208B3E6160163FBB600D8
:102EE400F2969388F7FF63E3C60D63F1B60CF91706
:102EF400F2968D8EB3D5D60333470708B3F6D603BF
:102F0400B308B302C206558F637B17017297938689
:102F1400F5FF6369C70963771709F9157297C20743
:102F2400C16ECD8F9386FEFFB3F5D70013D307018F
:102F3400F18E4182338ED50233071741B306D30293
:102F440093580E01B385C502B695C6953303C302E3
:102F540063F3D500769393D605019A966363D702FB
:102F64006305D7003E8581458280C166FD1633F72F
:102F7400D5004207337EDE00331505017297E373F3
:102F8400E5FE1385F7FF81458280B707000163776B
:102F9400F6029356060141477DB38145054582807B
:102FA4003A85E9B5B685A5BF2A8E59BDC68791B7BE
:102FB4007915C297CDB37915C297CDB993568601C9
:102FC400614751B33288AA882E832E87DDE263FEDF
:102FD400C50EC167636FF616B7070001B337F60075
:102FE400B307F040E19BE1073353F6009726000056
:102FF400938646119A96942213030002B697B30659
:10300400F340630BF3003397D500B357F50033183F
:10301400D6005D8FB318D500935508013356B70217
:103024003343080893D708013377B702330666029F
:103034004207D98F63F7C700C29763E4070163EEC1
:10304400C72E918F33D7B70233C50808B3F7B70239
:1030540033076702C2075D8D6378E50042956365B7
:1030640005016373E5004295198D3355D5008145FB
:10307400828063F3D5008280C16763E8F616B707E0
:103084000001B3B7F600B307F040E19BE10733D882
:10309400F600172700001307E70642971823130EBC
:1030A40000023E973308EE406315EE1663E4B60063
:1030B400636AC500B308C540B386D54033331501F0
:1030C4003383664046859A85828051CAC167637A94
:1030D400F62413370610134717000E07B356E600FD
:1030E4009727000093870702B6979C2313030002D7
:1030F400BA97B306F3406313F3083387C5401353F9
:10310400060133460608B355670293D7080133779F
:103114006702B385C5024207D98F63F8B700C29727
:1031240063E5070163F3B700C2978D8F33D7670256
:10313400B3C80808B3F767023307C702139507013A
:1031440033E5A800E36CE5F0198D3355D5008145CE
:1031540082809337061093C717008E0771B5814696
:1031640097270000938707FAB6979C230147130318
:103174000002BA97B306F340E301F3F83318D6001C
:1031840033DEF50013530801B35E6E02B395D50028
:103194003357F5004D8F3346080893570701B3188A
:1031A400D500337E6E02B385CE02420EB3E7C7016B
:1031B40063F8B700C29763E5070163F3B700C297EA
:1031C4008D8FB3D5670233470708B3F76702B3851A
:1031D400C502C2075D8F6378B70042976365070134
:1031E4006373B70042970D8F39BF93B7061093C727
:1031F40017008E0733D8F60017270000130787F04F
:1032040042971823130E00023E973308EE40E30F53
:10321400EEE8B3960601B358E600B3E8D80033DE0F
:10322400E50013DF0801B357EE03B356E50033138B
:103234000501B3CE0808B3950501D58D93D60501D4
:1032440033160601337EEE033385FE02420EB3E6E7
:10325400C60163FBA600C696138EF7FF63ED160D39
:1032640063FBA60CF917C696898E33D5E603B3C55E
:103274000508B3F6E603B38EAE02C206D58D63FB32
:10328400D501C6959306F5FF63E5150B63F3D50BDE
:103294007915C69593960701C162C98E1385F2FF0D
:1032A40033FEA600935F0601C182718D330FAE0217
:1032B400B385D5413385A60293570F01330EFE0320
:1032C4002A9EF297B386F60363F3A7009696C16E1F
:1032D400FD1E33F5D70113DE07014205337FDF01FD
:1032E400B307DE007A9563E5F5026381F5023305E1
:1032F400A3403333A3009D8DB38565403397E50028
:1033040033550501598DB3D505018280E371A3FEC0
:103314003306C5403335C500AA98B38717413285B3
:10332400F9B7B7070001637CF600935606014147DD
:1033340045BB368585B7F28705BFC29719B3935647
:103344008601614771BBB7071000FD17B3F8B700DA
:1033540033F8D70013DE460193D745018E08135383
:10336400D6011357D5010E0893F7F77F137EFE7F1E
:10337400FD81FD823367170133680301931E350015
:1033840013133600B388C7416388D51663501011F0
:10339400630B0E1E9306F07F638DD7549306800350
:1033A40005461318782963C71603FD4663CB1641F7
:1033B40093060002B38616413316D8003355130121
:1033C400B316D300498EB336D000B3581801558EC6
:1033D400330717413386CE40B3B6CE00158FB706F8
:1033E40080003375D70063050524FD16758F630FC0
:1033F400072693160760E11613050002B308D540AB
:10340400B35816013317D700B3E8E8003316D600D3
:1034140063C1F6329D8E8506158DB317A60033570A
:10342400D600B337F000D98F3395A8003366F50082
:1034340033D7D80081479376760081CE9376F60011
:1034440011456388A6009306460033B6C60032973A
:103454003686B7068000F98E6382062685079306B2
:10346400F07F638AD71A0D829318D7011318970037
:10347400B3E8C8001358C80093F7F77FD207B3E73F
:103484000701FE05CD8F4685BE85828063800812C4
:10349400B308FE40639B0730B367D70163840728F2
:1034A4009387F8FF6382074E9305F07F638CB844DB
:1034B40093058003054663C8F502BE88FD4763C6CD
:1034C400174793070002B38717413316F700B3D5A4
:1034D4001E01B397FE004D8EB337F000B3581701A9
:1034E4005D8E330818413306C3403333C3003307BA
:1034F4006840F287B685E5B56351101563110E1067
:10350400B3666800638306229386F8FF638A063AEB
:103514001306F07F6386C848130580030546634994
:10352400D502B688FD4663D01633938608FE13068B
:103534000002B356D800638AC80013060004330699
:1035440016413316C8003363C30033366000558E0A
:10355400B306D60133B5C6002A973686B70680006F
:10356400F98EF9C685079306F07F6386D70A9356CA
:103574001600058A1315F701D18E131777493366A0
:10358400D50005834DBDB36668006380061A938633
:10359400F8FF638506341306F07F638AC8141305A5
:1035A40080030546E348D5E2B68801B59388170041
:1035B40093F8E87F6394081C336ED701B3686800FE
:1035C4006396072E63050E3A6386083E33866E4083
:1035D40033B5CE00330E0741330EAE4037058000BD
:1035E4003375AE00630E0542B30ED3413308E84091
:1035F4003333D301768633076840B6852DBD9306F1
:10360400F07F6386D70E9306800305461318782946
:10361400E3DA16F135BF9307F07F0148D207B3E729
:103624000701FE058148CD8F4685BE85828085478A
:1036340013757600E31405E03DAA63800810B3080F
:10364400FE406394071AB367D701638F07369386E6
:10365400F8FF638706269307F07F638FF82A130623
:10366400800385476342D61CB68859AA931806601E
:103674007D4593868801E351D5D8E118B318160126
:1036840063CCF61A3386F64093061600635BD53A8C
:1036940005169307000233D6C800638BF600930720
:1036A4000004958FB398F800B338100133661601FF
:1036B400137576008147E31305D875A89356360031
:1036C4009318D7011306F07FB3E8D80013583700D6
:1036D4006388C702320893F7F77F1358C800D207EC
:1036E400B3E70701FE05CD8F4685BE8582800E05B2
:1036F400935835009317D701B3E8F80013583700EF
:10370400B3E80801E38908F09307F07F370808005D
:103714008145D207B3E70701FE058148CD8F468571
:10372400BE8582809A8E4287B68593D63E00C68730
:1037340041BF958F13977849FDB99388170093F685
:10374400E87F63940612B366D7016394072063830A
:103754000628B36668006388062876933A98B336D9
:10376400D3013307D80037058000798D1A8601C547
:10377400854713177749B28EBE8845BF33866E409E
:10378400B3B8CE003305074133051541B7088000AF
:10379400B378150163910810B368A6002A87E398EB
:1037A40008C4814581470148D1B99307F07F630B71
:1037B400FE1493078003054613177729E3D017D126
:1037C4001DB3938608FE13060002B356D800638A1D
:1037D400C80013060004330616413316C8003363C9
:1037E400C30033366000558EF5B69307F07F63054A
:1037F400FE129306800385471317772963C61603C1
:10380400FD4763CB171F93060002B3861641B31717
:10381400D70033D61E01B396DE00D18FB336D00065
:10382400B3581701D58F46983E93B337F3003387C7
:1038340007011A86F2871DB313987849958FF60805
:103844001358380041BD93060002B386164133165F
:10385400D80033551301B316D300498EB336D000C4
:10386400B3581801558E4697E5B19307F07FE3846A
:10387400F8DA33856E00B3070701B336D501B6977E
:1038840005811396F701498E1D8913D71700C68742
:10389400E31605BACDB5B30ED3413308E84033334C
:1038A400D301768633076840B68591B663110E124C
:1038B400639E081681459307F07F370808007DBE94
:1038C40076933A98B336D3013307D800B70780000C
:1038D400F98F1A86E38D07D4894751B933836E4033
:1038E40033080741B3B66E001A863307D8408547BC
:1038F400FDB40E050D819318D701B3681501135853
:103904003700FDBB0E069317D8010D82B368F6008D
:1039140013583800B685EDB30E069317D8010D82FF
:10392400B368F60013583800E1BB938708FE13060A
:103934000002B357F700638AC80013060004330675
:1039440016413317C700B3EEEE003336D0015D8E57
:1039540059BEF9D233636800E31803DA0E050D810A
:103964009317D701B368F5001358370051BBE38AA6
:1039740008E2131736009318D8010D83B3E8E80062
:1039840013583800B685B9B3B30ED3413308E840B1
:103994003333D301768633076840B685854781B4CF
:1039A400931735009318D7018D83B3E8F8001358A3
:1039B4003700B9B3931635009318D7018D82B3E855
:1039C400D8001358370039B39A8E4287B9BBE387BE
:1039D40008F81DBB0E061317D8010D82B368E60064
:1039E40013583800C5B90E050D819316D701B36875
:1039F400D50013583700F9B9938608FE93070002DF
:103A0400B356D700638AF80093070004B3871741BD
:103A1400B317F700B3EEFE00B337D001D58F29B545
:103A2400B368C6017287E39808D4A5BB9317360020
:103A34009318D8018D83B3E8F80013583800B6857D
:103A4400C1B113050002158D8147F1BA411113D795
:103A540045019397C50022C626C41377F77FB18327
:103A6400FD81630207101308F07F630C071393585A
:103A7400D5018E07B3E7F800131E35000143130583
:103A840017C0014F9398772993D746011397C6001F
:103A940093F7F77F3183FD82D9CB1308F07F638DD1
:103AA400070713183700938717C01357D6013367D6
:103AB4000701931E36001D8D814F131777293D464C
:103AC40033C8D500636E6616171600001306865FAA
:103AD400B347C3209C43B29782879D8E130680030D
:103AE400635BD63E8147814601463244D207D58F77
:103AF4007E08B3E70701A2443285BE854101828076
:103B04009307F07F81460146CDB701489307F07FC4
:103B1400B70608000146D1BFB36EC7001305158070
:103B240063960E10136323000147894F49BFB36E98
:103B3400C70063880E0E630D073493170760938FD5
:103B440057FF7548938E87FF3308F8413317D70121
:103B5400335806013367E800B31ED601AA971385CC
:103B6400373F814FA9BFB3E8A7006386080C63827F
:103B7400073013980760130758FFF548130E88FFA2
:103B8400B388E840B397C701B3581501B3E8F80008
:103B9400331EC5011307D0C0330507410143014F4C
:103BA400E5B5B3E8A70063970806014E2143130562
:103BB400F07F094FD1BD7E8F89476309FF3C8D4754
:103BC400E305FFF485473688E30EFFF09307F53FDE
:103BD4006358F02093F67E006390063AB70600011E
:103BE400F98E89C693070540131787499306E07F2A
:103BF400E3C8F6F093DE3E001316D7019316970040
:103C04003366D601B18293F7F77FC5B5AE86468792
:103C1400F28E5DB72A8EBE8831431305F07F0D4FB7
:103C2400A5B5136313000147854F51BD13633300DA
:103C3400B28E8D4F69B5014E11430145054FA9B5AB
:103C4400636F1721638BE820728F7D15C687014E41
:103C54009316870093D8060133D7170313D68E0122
:103C6400558E93958E003343060893560F01B3F790
:103C74001703B30EE302C207D58F63F8D701B297D7
:103C84009306F7FF63F4C7243687B387D741B3DEBF
:103C94001703B3460F08B3F717033304D303C2075C
:103CA400DD8E63F88600B2969387FEFF63FBC62021
:103CB400BE8E4207C1643367D701138FF4FFB37E0E
:103CC400E7019352070193DF050133FFE501B303D5
:103CD400DF03818EB38EDF0393D703013384E203C2
:103CE400A29EF697B382F20363F38700A69241641F
:103CF4007D1493DE0701E18FC207B3F38300969E20
:103D04009E9763EAD6136386D613B307FE40B38641
:103D1400D641333EFE00B386C6416301D624B3DEEA
:103D2400160313DE0701B3F61603B302D303C20668
:103D3400B366DE0063FB5600B296138EFEFF63E5A6
:103D4400C62463F35624F91EB296B386564033DE76
:103D54001603B3C70708B3F616033303C303C20637
:103D6400D58F63FB6700B2979306FEFF63ECC72011
:103D740063FA6720791EB297C20EB3EECE0193D2D6
:103D84000E01B3C60E08338EE203B3876740B388CF
:103D9400DF02338FE603F29893560F01C696B38F72
:103DA4005F0263F4C601C168C69F41637D1393D863
:103DB4000601B3F66600C206337F6F00FE98FA96DA
:103DC40063F6170FB297138EFEFF3E8363E6C716A2
:103DD40063E4171D638D171DF28E93EE1E00FDB371
:103DE4008546E39C07CE1305E541B397AE00B33790
:103DF400F0003315A700C98FB3DEDE00B3EEFE007A
:103E040093F77E003357D70081CF93F7FE00914696
:103E14006388D70093874E00B3BED7017697BE8ED2
:103E2400B7058000F98D854781460146E39F05CAA1
:103E3400D5A8E37CFEECB302BE00B3B3C201338E5B
:103E4400C300F2961304F7FF168E6376D60663EF6B
:103E5400D60F638BDE0E22874DBDE367DEDF9356FC
:103E64001E00139FF80193D71800336FDF007E0EF6
:103E7400C5B393180560714313875801138808026A
:103E8400E35DE3CE938788FFB318F500014E19B3C1
:103E940013180660F14E930F580193070802E3D2FA
:103EA400FECB6118814E331706014DB9E39717F322
:103EB400E38E06D001BFE310D6FAE38A03F8228723
:103EC400A9B5E3F786DEF91EB296E5B3E3FED7DBC8
:103ED4007917B2975DBB7D46E357D6F00556B30715
:103EE400F64013060002B357F7006388C6001305B3
:103EF400E5433317A700B3EEEE00B33ED001B3EEB3
:103F0400FE0013F77E00814615C393F7FE00914629
:103F140001476389D70093874E00B3BED701333777
:103F2400D001BE8E93169700B182760793DE3E00D1
:103F340033E6EE00814755BEF28EE31013EBE387C0
:103F4400B6C893EE1E0059B1E3F7F2F0AE92B3B3E4
:103F5400B200B2937917168E9E9645BB930620C085
:103F64009307F53FFD5EE34DD5E693864E00B3BE61
:103F7400D6017697B68E9DB193F6FE001146E38F77
:103F8400C6C4E5B7368ECDBBF28EC1B3368893076F
:103F9400F07F8146014691BE139E15003333BE0067
:103FA40032933E93F91EF285E30B13F93DB5E3E535
:103FB400D5FEF28EE397B6F811B913D74501B707CA
:103FC4001000FD1713D846011377F77F1303F07F12
:103FD40033FEB700AA88F58FFD811378F87FFD8240
:103FE4000545630A670063076800631407016300FB
:103FF400FE0282808280E31EE8FEB367FE00D18F5A
:10400400B3E71701FDF7958D3335B0008280E39255
:10401400C8FE6388D50071FF336E1E013335C001BD
:1040240082800145828013D84501B7071000FD172F
:1040340093D846011378F87F130EF07F33F3B7005B
:104044002A87AA8EFD81328FF58F93F8F87F13D5D6
:10405400F601630CC803638DC80163150804336754
:10406400E300639E08025D8E25C235EB1DC5828088
:104074005D8E25E6631608003363E300E30803FE60
:10408400639BA50099C92E8582803363E300631680
:104094000304638E08030545F9D97D5582806DF3C9
:1040A40079F5E5BFE38908FEE397A5FEE3C508FFBC
:1040B400E34A18FDE3E167FEE316F3FCE36DDFFD7D
:1040C4000145E3E1EEFD8280014571F78280D18FE5
:1040D40089E7E392A5FC0145828079558280E38BD0
:1040E400A5FC55BF13D84501B7071000FD1793D899
:1040F40046011378F87F1303F07F33FEB7002A8755
:10410400AA8EFD81328FF58F93F8F87F13D5F601CF
:10411400630D6802638D6800631308043367EE005F
:10412400639308065D8E3DC22DEB11CD82805D8EBA
:104134000DE663160800336EEE00E3080EFE63819D
:10414400A5040545E5D57D558280336EEE006316E2
:104154000E00E39808FFD18F8DCF09458280E3825A
:1041640008FEE390A5FEE3CE08FD634B1801E3EAE5
:10417400C7FD6317FE00E366DFFD0145E3F8EEFBD0
:10418400F9D12E85828045FF55F175BF014555FB58
:104194008280E398A5FA01458280E38AA5FC55B79D
:1041A400411193D74501939EC50022C626C44AC235
:1041B4004EC093F7F77F93DECE00FD816389071429
:1041C4001307F07F6382E7188E0E1357D501B36E81
:1041D400D70193123500138E17C081488144939EF2
:1041E4007E2993D746011397C60093F7F77F32844D
:1041F4001353C70093D3F601F9CB1305F07F6386FD
:10420400A706131733001355D601498F938617C099
:10421400338FC60113137729294713143600014538
:10422400130E1F006346171733C87500C28F8945E4
:1042340063CF15051386F8FF854863EBC818630F31
:10424400B51085477E886316F50681478146014788
:104254003244D207D58F7E08B3E70701A24412493E
:1042640082493A85BE85410182803366C300130FBB
:10427400FE7F6301061033C875009316B02893E8D7
:1042840038002947C28F369E634417410D453316C3
:1042940010291377065305C389476381F40C8D47AE
:1042A4006381F41226858547768316847E88E30E1F
:1042B400F5F8728FBDAC93750624DDE51376860898
:1042C400630806109E8F9A8EA282AA84F1B7336780
:1042D400C30061CF630F0330131F036013075FFF35
:1042E400754593078FFF198D3355A6003317F300D7
:1042F4003363E5003314F600330FEE41130FDFC0D0
:1043040029470145130E1F00E35017F351A0B3E2F0
:10431400AE006387020863800E2C13980E60930727
:1043240058FF7547930288FF1D8FB39E5E00335775
:10433400E500B36ED701B3125500130ED0C0330E8F
:104344000E418148814471BDB3E2AE00639402041E
:10435400814EA148130EF07F894461B57E8893078E
:10436400F07F81460147EDB501489307F07FB7061A
:104374000800F9BD1317B02893E82800A9473A9E0E
:1043840063DC17290144B94709452D476380E730A9
:10439400AE8F19B7AA82B148130EF07F8D4491B540
:1043A400814E9148014E85442DBD728F93E81800CB
:1043B4002947014301440545130E1F00E35617E73F
:1043C400C1BF01489307F07FB7060800014749B50C
:1043D400C1659384F5FFB3F7920013D90201935892
:1043E4000401E18C338797023306990213550701C0
:1043F400B386F802B2963695B30F19036373C500FA
:10440400AE9F41641306F4FFB375C500B376C300D1
:10441400718F93530301C205B382D702BA954181C8
:104424003307D90213D60201B387F302BA973E9633
:10443400B30779026373E600A297C1691383F9FF96
:104444003377660013D40E01B3F26200B3FE6E003C
:10445400420716973389D40341823E963A95B38234
:10446400D80393570901330394029A929697B38819
:10447400880263F36700CE98C1691383F9FFB3F42C
:104484006700C20433736900C183C697B382D6033D
:10449400B3886400B306D40213D30201B38ED303EA
:1044A400B69E9A9E3383830263F3DE004E93C16308
:1044B400FD13B3F67E00C206B3F272007E959696A3
:1044C40036963337E5003297AA98BA9733B5A800E1
:1044D4003E95B336D6003336C700D18E33B7E700E6
:1044E40013D60E01B337F500B2965D8F36971A973F
:1044F40093979800260793567501CD8F3363D700A1
:10450400B337F00013D77801D98F37070001260598
:104514003377E30033E4A70009CF135714009377EC
:1045240014009316F301D98F33E4D7001353130007
:10453400728F1306FF3F6358C0049377740081CFD2
:104544009377F40011476388E70013074400B337F7
:1045540087003E933A84B7070001B377F30089C715
:1045640013060F40131383499307E07F63C1C70AFF
:10457400935734001317D301931693005D8FB182C0
:104584009377F67FF1B1054759EE130FEF413316D8
:10459400E4013336C000331FE301B357E40033664C
:1045A400E6015D8E93777600B355E30081CF937770
:1045B400F60011476388E7009307460033B6C70047
:1045C400B2953E86370580006D8D8547814601474B
:1045D400E31005C85DA013170560F1489307570160
:1045E40013080702E3DFF8D261178142B31EE50026
:1045F400A9B393170660F14613875701138F070277
:10460400E3D0E6CEE11701443313F600F5B1930786
:10461400F07F814601472DB933C87500C28F01432D
:104624000144094529B1118F93078003E3CFE7C003
:10463400FD47E3DCE7F48557918F93060002B357F7
:10464400F3006308D700130FEF43331FE301336410
:10465400E401333680005D8E1377760081461DC3F6
:104664009377F600114781456389E7009307460075
:1046740033B6C700B335C0003E86939695001397B2
:10468400D501B1820D82518F8147D9B632831DB9CC
:104694003D476397E8000148B706080001474DBE4F
:1046A4001A86AD470D45D5B1B7071000FD1733FE87
:1046B400B70033F8D70013D3460193D745010E0E44
:1046C4001357D5010E089358D6011373F37F930E35
:1046D400F07F3367C70193F7F77FFD81131F350020
:1046E400FD82B3E80801131E3600630BD31913C807
:1046F4001600B386674063800511635CD054630978
:10470400031C6380D75513058003054693987829C5
:104714006346D5027D46634BD63C13050002158DD6
:104724003396A8003358DE003315AE003366060115
:104734003335A000B3D6D800498E158F3306CF4049
:10474400333FCF003307E741B70680003375D70006
:10475400630E0522FD16758F630507281315076080
:10476400611513080002B306A840B356D6003317E8
:10477400A700D98E3316A6006340F5301D8D0505BC
:104784003308A840B31706013357A600B337F00027
:10479400D98F339806013366F80033D7A6008147D2
:1047A4009376760081CE9376F60011456388A60051
:1047B4009306460033B6C60032973686B7068000A5
:1047C400F98E6387062685079306F07F6382D71ADE
:1047D4000D829316D70193189700D18E93D8C800F1
:1047E40093F7F77F8589D207B3E71701FE05CD8FCD
:1047F4003685BE8582806359D05A6311031633E629
:10480400C801630706261386F6FF630A063E63871C
:10481400D64793068003054563C9C602B2867D4622
:10482400635CD634138606FE1305000233D6C80033
:10483400638AA60013050004B306D540B396D800D6
:10484400336EDE003335C001518D3306E501333557
:10485400A6002A97B7068000F98E63890612850799
:104864009306F07F6386D71093561600058A1315B6
:10487400F701D18E131777493366D50005830DB739
:1048840033E8C801938E17806315080613C8160011
:104894006384050763810E106384071C0E069397D7
:1048A400D8010D82B366F60093D83800C285B3E60A
:1048B4001601DDCE9307F07FB70808008145D207C3
:1048C400B3E71701FE058146CD8F3685BE8582800C
:1048D40033E6C801630E06181388F6FF630808342C
:1048E400638DD633930680030546E3C906E5C28685
:1048F40015B53688E390D5FA63840E1863950726B8
:104904009306F07FB367E7016386073E1385F6FFDE
:104914006307052E9307F07F6387F62493068003CD
:10492400854763C5A602FD4763CFA74093060002EF
:10493400898EB317D7003356AF00B316DF00D18F7B
:10494400B336D0003355A700D58FAA983E9EB3370F
:10495400FE003387170172869A87EDBD638FD72BCC
:1049640013068003054593987829E35AD6EAF1BDE6
:104974009307F07F81488589D207B3E71701FE05C5
:104984008146CD8F3685BE858280854793767600B5
:10499400E39B06E025A29386170093F6E67F6392D5
:1049A4000612B3E6C8013363E70163900724630E7C
:1049B4000330638806323306CF41B336CF00330564
:1049C4001741158DB7068000E98E638A063A3306CF
:1049D400EE41B388E840333ECE003387C841C285F8
:1049E400C1B3931606607D4813858601E35BA8D6A0
:1049F400E116B316D6006343F51A3306F5401305E2
:104A04001600635DA83805169307000233D6C60066
:104A1400630AF50093070004898FB396F600B33652
:104A2400D000558E937676008147E39E06D679A012
:104A34000D829316D7011305F07FD18E935837005A
:104A4400E387A7E6B20893F7F77F93D8C800858970
:104A5400D207B3E71701FE05CD8F3685BE85828068
:104A64009306F07FB367E701D5E74687728FC28567
:104A740013563F00B68775BF898F139776490DB3D8
:104A8400138817009376E87F63910612B366E701F3
:104A94006391071E638E0626B3E6C8016383062866
:104AA4007A9E3336EE01BA983387C800B706800081
:104AB400F98E728681C6854713177749328FBE8671
:104AC40045BF3306CF41B336CF0033051741158DAB
:104AD400B7068000E98E63900610B366A6002A87A5
:104AE400E39C06C6814581478148F5B9138506FED6
:104AF4001306000233D5A800638AC6001306000417
:104B0400B306D640B396D800336EDE003336C00108
:104B1400498E2DB11385F6FF630E05189307F07FB8
:104B24006389F62093078003C28563C2A714FD47F7
:104B340063CFA71493070002898F3316F700B35687
:104B4400AF00B317FF00558EB337F0003355A700FD
:104B54005D8EB388A8403306CE40333ECE00338703
:104B6400C8419A87D5B60E069397D8010D82B366CD
:104B7400F60093D8380025BB13060002158E339532
:104B8400C8003358DE003316CE00336505013336D2
:104B9400C000B3D6D800518D369745B9939876495D
:104BA400898FF60693D8380071BD9307F07FE3012F
:104BB400F8DCB306CF0133B6E601B3071701B297A9
:104BC40085821396F701558E9D8A13D71700C287E5
:104BD400E39B06BCE5B53306EE41B388E840333EBB
:104BE400CE003387C841C28585BE63180310639E17
:104BF400061881459307F07FB7080800EDB67A9E42
:104C0400BA98333FEE013387E801B7078000F98F84
:104C14007286E38C07D6894781B90E059356350011
:104C24009317D701DD8E9358370051B1330ECF411E
:104C3400B3081741333FCF0172863387E841854774
:104C440021B60E059316D7010D81C98E93583700EE
:104C5400B9B9E38206D43305F340AA86E38407E0B6
:104C640093078003C28513177729E3D2A7EC05467F
:104C7400DDB5EDCE33EEC801E31E0EC20E050D8187
:104C84009317D701B366F500935837000DB1930716
:104C940005FE93060002B357F7006309D500930697
:104CA4000004898E3317D700336FEF003336E001E9
:104CB4005D8E55B53306EE41B388E840333ECE00F1
:104CC4003387C841C285854741B4E38D06E00E06AB
:104CD4009396D80113573600D98E93D83800C285DD
:104CE40095B30E059316D70113563500D18E9358FC
:104CF400370089BB4687728FA5BBE39D06BA0E05B4
:104D04009316D70193573500DD8E9358370045B677
:104D14000E061397D8010D82B366E60093D83800C7
:104D240015B30E050D819316D701C98E935837001C
:104D340011BB0E069396D80193573600DD8E93D897
:104D44003800C285ADB6930605FE93070002B3563C
:104D5400D7006309F50093070004898FB317F700A0
:104D6400336FFF00B337E001D58FCDB60E069396AF
:104D7400D80193573600DD8E93D838000DBEB36644
:104D8400A6002A87E39C06D2B1BB0E069396D801EF
:104D94000D82D18E93D83800C28511BE130800024B
:104DA4003308A8408147EDB2E38C06CC3305F340C9
:104DB40099E3AA8681BE9306800385471317772952
:104DC400E3D3A6B661B613D74501B7071000FD17A4
:104DD40013D846011377F77F9308F07FFD8D13787E
:104DE400F87FF58F630C17011307F07F0145630308
:104DF400E8008280D18F3335F0008280C98D05456B
:104E0400E5D5828093D745011397C50093F7F77FC3
:104E14009306E03F3183FD8163DBF6009306D041C6
:104E240063D9F600370500807D152E9582800145F3
:104E34008280930630439D8E7D4613174729635D18
:104E4400D60093063041B387F6403357F700330555
:104E5400E040F9FD3A8582809387D7BE3317F70087
:104E64003355D500498FE5B721C13307A0409307D7
:104E7400E0413367E50AA94613160760918F7D81E7
:104E840093F7F77F63CDC602AD46918EB356D70034
:104E9400B206B182D2075506D58F7E05C98F331766
:104EA400C7003A85BE858280814781460145D20785
:104EB400D58F7E05C98F01473A85BE8582805516F8
:104EC400B316C700B206B182D207D58F7E05C98F4B
:104ED40001473A85BE858280AA879823850775FF96
:104EE4003385A7407D1582806C65667420696E20C9
:104EF4006F76657272756E0D0A00000072696768DC
:104F04007420696E206F76657272756E0D0A0000EA
:104F1400726967687420696E206F76657272756E47
:104F24000000000068630D0A0000000074630D0AAD
:104F34000000000073616920696E20636C6B3A2580
:104F4400782C206469763A25640D0A0073706B200E
:104F540072656164206669666F20646F776E206F86
:104F64007665722025640D0A0000000074653A25F8
:104F7400640D0A007361695F73706B5F696E6974B5
:104F840020646F6E650D0A004E614E00494E460066
:104F94004F560000000000002530386C58200000F7
:104FA4002025303258000000202000002025303415
:104FB40058000000202530386C5800000000000024
:104FC40000000000006AF8400000000000002440D7
:104FD400F168E388B5F8E43E000000000000F03F0B
:104FE400FFFFFFFFFFFFEF7F000000000000004015
:104FF400BA2710206A2810206A2810206A28102056
:105004006A2810206A2810206A2810206A28102094
:105014006A2810206A2810206A2810206A28102084
:105024006A2810206A2810206A2810206A28102074
:105034006A2810206A2810206A281020CA26102006
:105044006A2810206A2810206A2810206A28102054
:105054006A2810206A2810206A2810206A28102044
:105064006A281020B2261020D2261020C226102032
:10507400BA271020BA2710206A2810206A28102086
:105084006A2810206A2810206A2810206A28102014
:105094006A2810206A281020BA2610206A281020B6
:1050A4006A2810206A281020EE2610206A28102072
:1050B400C22610206A2810206A281020CA26102030
:1050C40080EBFFFF40EAFFFF24EAFFFFF6EAFFFF61
:1050D40024EAFFFF4AEAFFFF24EAFFFFF6EAFFFFA4
:1050E40040EAFFFF40EAFFFF4AEAFFFFF6EAFFFF5C
:1050F4004CEBFFFF4CEBFFFF4CEBFFFF4AEAFFFFDB
:10510400000102020303030304040404040404046A
:10511400050505050505050505050505050505053B
:10512400060606060606060606060606060606061B
:10513400060606060606060606060606060606060B
:1051440007070707070707070707070707070707EB
:1051540007070707070707070707070707070707DB
:1051640007070707070707070707070707070707CB
:1051740007070707070707070707070707070707BB
:10518400080808080808080808080808080808089B
:10519400080808080808080808080808080808088B
:1051A400080808080808080808080808080808087B
:1051B400080808080808080808080808080808086B
:1051C400080808080808080808080808080808085B
:1051D400080808080808080808080808080808084B
:1051E400080808080808080808080808080808083B
:1051F400080808080808080808080808080808082B
:1052040097B110209381C17817B11720130141DFA2
:105214001305800097B51020938585DE17B61020FE
:105224001306C6EC63FAC5008322050023A05500CB
:1052340011059105E3EAC5FE97B01020E78040DC34
:10524400B70237129382123E739002BC8542739068
:1052540012BC9D427390428099629382820873903B
:10526400023097B20F209382A2D993E23200739056
:10527400523097B20F20938242027390123473001B
:0452840020300000D6
:10528800040607081109130A150B170C190D0E0F40
:10529800101112131416181A1C1E20222426283B3B
:1052A80000000000000000000102030406070809CE
:1052B800191C1E202326282D32383C40464C505AB3
:1052C800000000000000000000000000800C00004A
:1052D800200811200000000000000000000000006D
:1052E800800C0000A0141120000000000000000045
:1052F8000000000000190000A02311200000000099
:10530800000000000000000000040000A03C112084
:10531800C0579511E0ABCA08000102020100000065
:00000001FF
